:100000000C944A000C9476000C9476000C947600C4
:100010000C9476000C9476000C9476000C94760088
:100020000C9476000C9476000C9476000C94760078
:100030000C9476000C9476000C9476000C94760068
:100040000C9476000C9476000C9476000C94760058
:100050000C9476000C9476000C9476000C94760048
:100060000C9476000C9476000C9476000C94760038
:100070000C9476000C9476000C9476000C94760028
:100080000C9476000C9476000C9476000C94760018
:100090000C94760011241FBECFEFD0E1DEBFCDBFA0
:1000A00084E790E020E8FC012083000085EC90E0EC
:1000B000FC01108284EC90E028E0FC01208381ECBC
:1000C00090E028E0FC012083000011E0A0E0B1E016
:1000D000E6E1F3E000E00BBF02C007900D92A43907
:1000E000B107D9F70E9478000C9489010C940000A4
:1000F000CF93DF93CDB7DEB780E091E00E949B0005
:100100000E94D900811519F08DE191E002C086E3CB
:1001100091E00E949B000E941A01811519F08EE562
:1001200091E002C085E791E00E949B0080E090E0B2
:10013000DF91CF910895CF93DF9300D000D0CDB75A
:10014000DEB79C838B831A82198220C0000080EC6A
:1001500090E0FC018081882F90E08072992721E057
:10016000009709F020E0211591F789819A812B8170
:100170003C81820F931FFC01208186EC90E0FC0102
:10018000208389819A8101969A83898389819A81C2
:100190002B813C81820F931FFC0180818115B1F678
:1001A000000000000F900F900F900F90DF91CF9103
:1001B0000895CF93DF9300D000D0CDB7DEB780E0B5
:1001C00091E19A8389830CC029813A8189819A813E
:1001D000FC013183208389819A8102969A838983E5
:1001E00089819A818F3FF0E39F0770F380E091E16E
:1001F0009C838B8311C08B819C81FC012081318188
:100200008B819C812817390711F080E00CC08B810D
:100210009C8102969C838B838B819C818F3FF0E332
:100220009F0748F381E00F900F900F900F90DF91A0
:10023000CF910895CF93DF93CDB7DEB760970FB618
:10024000F894DEBF0FBECDBF1E861D868FEF9FEFD9
:10025000988B8F87CE010D9698878F838F81988595
:100260009A8389838F81988504969A8789873FC06E
:1002700089819A81FC01808191819C878B8780E0B4
:1002800091E19C838B830CC08B819C812B853C8569
:10029000FC01318320838B819C8102969C838B831C
:1002A0008B819C818F3FF0E39F0770F380E091E1A9
:1002B0009E838D8311C08D819E81FC0180819181FF
:1002C0002B853C852817390711F080E019C08D81F6
:1002D0009E8102969E838D838D819E818F3FF0E368
:1002E0009F0748F389819A8102969A83898329819D
:1002F0003A8189859A852817390709F0B9CF81E0B5
:1003000060960FB6F894DEBF0FBECDBFDF91CF91E0
:060310000895F894FFCFF0
:10031600436865636B696E672065787465726E61A4
:100326006C206D656D6F72792E2E2E0A0041646405
:1003360072657373206C696E657320617265206FD8
:100346006B6179210A0041646472657373206C697C
:100356006E6573206172656E277420776F726B69A4
:100366006E672070726F7065726C792E0A00535238
:10037600414D2773206269747320617265206F6B2B
:100386006179210A0042697473206172656E27746F
:100396002066756C6C792061636365737369626C42
:0403A600652E0A00B6
:00000001FF
